:020000040800F2
:1000000080060020890100086F0C0008CD0A000856
:100010006D0C0008CF020008CB0C000800000000A7
:10002000000000000000000000000000730C000849
:10003000D102000800000000710C0008750C0008D7
:10004000A3010008A3010008A3010008A301000800
:10005000A3010008A3010008A3010008A3010008F0
:10006000A3010008A3010008A3010008A3010008E0
:10007000A3010008A3010008A3010008A3010008D0
:10008000A3010008A3010008A3010008A3010008C0
:10009000A3010008A3010008A3010008A3010008B0
:1000A000A3010008A3010008A3010008A3010008A0
:1000B000A3010008A301000800000000A30100083C
:1000C000A30100080000000000000000A3010008D8
:1000D00000000000A3010008A301000800000000C8
:1000E000A3010008A3010008A301000800F002F822
:1000F00000F03AF80AA090E8000C82448344AAF188
:100100000107DA4501D100F02FF8AFF2090EBAE885
:100110000F0013F0010F18BFFB1A43F0010318473B
:10012000640D0000840D0000103A24BF78C878C127
:10013000FAD8520724BF30C830C144BF04680C60ED
:10014000704700000023002400250026103A28BF35
:1001500078C1FBD8520728BF30C148BF0B60704739
:100160001FB51FBD10B510BD00F077F81146FFF7A1
:10017000F7FF00F01FFE00F095F803B4FFF7F2FF61
:1001800003BC00F09DF8000009488047094800477B
:10019000FEE7FEE7FEE7FEE7FEE7FEE7FEE7FEE737
:1001A000FEE7FEE704480549054A064B7047000094
:1001B000C90C0008ED000008800000208006002027
:1001C000800200208002002010B5431C02E010F8DD
:1001D000011B71B18107FAD14FF0013202C88C1AAC
:1001E0008C4314EAC211F9D0C01A0A0603D0C01E0B
:1001F00010BDC01A10BD0A0401D0801E10BD090236
:10020000FCD0401E10BD4FF0000200B513469446CE
:100210009646203922BFA0E80C50A0E80C50B1F15E
:100220002001BFF4F7AF090728BFA0E80C5048BF72
:100230000CC05DF804EB890028BF40F8042B08BF10
:10024000704748BF20F8022B11F0804F18BF00F80C
:10025000012B7047704770477047754600F02CF8C7
:10026000AE4605006946534620F00700854618B0A3
:1002700020B5FFF797FFBDE820404FF000064FF094
:1002800000074FF000084FF0000B21F00701AC46CB
:10029000ACE8C009ACE8C009ACE8C009ACE8C009EA
:1002A0008D46704710B50446AFF300802046BDE888
:1002B0001040FFF762BF0000004870472000002098
:1002C00001491820ABBEFEE7260002007047FEE79A
:1002D0007047000070B5044600F0F8F80546601C51
:1002E00002D004480078044400F0F0F8401BA0421B
:1002F000FAD370BD040000202DE9F84FDFF89C917F
:10030000002409F1040A0AF1040B23460F270BF11C
:10031000040EBBE00125A5402A40AA4276D1DFF8B1
:1003200080C14E68A6EB0C0866452BD00DDC032E71
:1003300034D005DC36B3012E19D0022E2FD11BE0AC
:10034000112E16D0122E2AD119E0B8F5881F19D017
:1003500006DCB8F5803F15D0B8F5801F1FD111E03D
:10036000B8F5001F0ED0B8F5041F18D10AE0CB680D
:1003700015E0CB681B1D12E0CB6808330FE0CB689B
:100380000C330CE08B682BB1012B4FF0080303D02A
:10039000456104E0042302E0056100E00023FF2A38
:1003A00001D8064601E000F104064FEA840501D9B0
:1003B000A5F12005D6F8008007FA05FC28EA0C080C
:1003C00003FA05F548EA0508C6F800804D68ED0017
:1003D0005BD5344DAE6946F00106AE61AD6924F0DF
:1003E000030605F0010500952F4D06EB050CDCF822
:1003F0000850A607360F07FA06F825EA0805DFF8C1
:10040000AC80404503D14FF0000810E03DE0DFF83C
:10041000A080404502D14FF0010808E0DFF8948049
:10042000404502D14FF0020801E04FF0030808FAFE
:1004300006F848EA0508CCF808804D68D9F800604D
:10044000ED034D4601D5164300E096432E604D68FE
:10045000DAF80060AD03554601D5164300E0964337
:100460002E604D68DBF80060ED025D4601D5164355
:1004700000E096432E604D68DEF80060AD027546E0
:1004800001D5164300E096432E60641C0A6832FAD8
:1004900004F57FF43FAFBDE8F88F00000004014091
:1004A000000011100010024000000140000801404F
:1004B000000C0140001001408068084000D001207D
:1004C00070470AB1016170470904FBE70148806881
:1004D000704700000400002002488168027811443F
:1004E0008160704704000020074810B5016841F0A2
:1004F00010010160032000F067F80F2000F006F8FB
:1005000000F024F8002010BD0020024070B50D4D11
:1005100004464FF47A712878B1FBF0F00A49096873
:10052000B1FBF0F000F0BEFA48B9102C07D200225F
:100530002146501E00F028F800206C6070BD01209C
:1005400070BD000004000020100000200C4808B519
:10055000816941F001018161816901F0010100912E
:10056000C16941F08051C161C06900F080500090C4
:100570000448416821F0E06141F08061416008BDBC
:100580000010024000000140F0B40E4B1B680C4606
:10059000C3F30223C3F10705042D00D90425191D57
:1005A000072901D2002300E0DB1E012606FA05F12F
:1005B000491E214099409E40761E16403143F0BCB2
:1005C00000F084BB0CED00E0064900F0070208686B
:1005D0004FF6FF03184040EA0220034A1043086028
:1005E000704700000CED00E00000FA052DE9F0472F
:1005F0000F46050061D0434E306800F00700B84256
:1006000009D2306820F0070038433060306800F0CD
:100610000700B84251D128683B4C810712D54007EA
:1006200003D5606840F4E06060602878000703D577
:10063000606840F4605060606068A96820F0F00075
:10064000084360602878C00728D06868012810D067
:100650002168022810D0890700292EDA616821F06C
:10066000030101436160FFF731FF804641F28839A1
:100670000DE021688903EFE78901EDE7FFF726FF29
:10068000A0EB0801494502D90320BDE8F087606866
:10069000696800F00C00B0EB810FEFD1306800F01A
:1006A0000700B8420BD9306820F0070038433060AB
:1006B000306800F00700B84201D00120E5E7287853
:1006C000400705D56068E96820F4E0600843606091
:1006D0002878000706D56068296920F4605040EA50
:1006E000C100606000F018F86168084AC1F30311A6
:1006F000515CC8400649086006480068FFF706FFDD
:100700000020C2E70020024000100240740E0008E2
:10071000100000200800002012A185B00FC98DE84C
:100720000F0014A0144A006804905168134801F0A7
:100730000C03042B10D0082B0ED1C1F38343C90343
:100740001DF803000AD5516804AAC1F34041515C69
:100750000A4A5043B0FBF1F005B0704708494843DE
:10076000FAE7000002030405060708090A0B0C0D4E
:100770000E0F1010010200000010024000127A005B
:1007800000093D002DE9F84F040070D02078C04DDD
:10079000C00749D06868C0F38100012807D06868A5
:1007A000C0F38100022809D16868C00306D5286813
:1007B000800339D560680028E7D035E06068B0F57F
:1007C000803F0BD010B1B0F5A02F11D0286820F4D5
:1007D00080302860286820F4802002E0286840F4F7
:1007E00080302860606890B1FFF770FE06460AE02E
:1007F000286840F480202860F0E700BFFFF766FE1D
:10080000801B642873D828688003F7D50CE0FFF7B5
:100810005DFE064605E000BFFFF758FE801B64281A
:10082000F0D828688003F7D420789A4E80074FF0DC
:1008300001094FF0000839D5686810F00C0F07D097
:100840006868C0F38100022809D16868C00306D433
:100850002868800714D52069012808D110E0206994
:10086000B0B1C6F80090FFF731FE074605E00AE197
:10087000FFF72CFEC01B0228C4D828688007F7D5D4
:100880002868616920F0F80040EAC10028600DE0A6
:10089000C6F80080FFF71AFE074604E0FFF716FED1
:1008A000C01B022823D828688007F7D420780007C7
:1008B0002CD57948A169D9B1C0F80090FFF706FEA0
:1008C000074604E0FFF702FEC01B02280FD8686A43
:1008D0008007F7D571484FF4FA510068B0FBF1F08A
:1008E000009000BF0098411E0091FAD20EE080E017
:1008F000C0F80080FFF7EAFD074604E0FFF7E6FDD9
:10090000C01B022875D8686A8007F7D42078400792
:1009100060D5E8690027C00008D4E86940F080503D
:10092000E861E869012700F0805000905C480168A8
:10093000C90513D40168834641F480710160FFF753
:10094000C5FD824606E000BFFFF7C0FDA0EB0A0030
:1009500064284ED8DBF80000C005F5D5E068012812
:100960000AD008B1052813D0286A20F001002862B7
:10097000286A20F0040002E0286A40F001002862A2
:10098000E06841F2883B98B1FFF7A0FD82460BE09A
:10099000286A40F004002862EEE700BFFFF796FDEA
:1009A000A0EB0A0159455AD8286A8007F6D50CE011
:1009B000FFF78CFD824605E0FFF788FDA0EB0A01FA
:1009C00059454CD8286A8007F6D41FB1E86920F051
:1009D0008050E861E06988B36968C1F38101022948
:1009E00044D00228C6F8608004D0FFF76FFD0446AB
:1009F00038E034E0FFF76AFD074604E0FFF766FDE4
:100A0000C01B02282BD828688001F7D4206AB0F5D3
:100A1000803F05D16868A16820F400300843686011
:100A2000D4E908010843696821F474110843686037
:100A3000C6F86090FFF74AFD044606E025E000BFD7
:100A4000FFF744FD001B022809D828688001F7D56C
:100A50001BE000BFFFF73AFD001B022802D903206C
:100A6000BDE8F88F28688001F4D40EE00128F7D0A3
:100A70006868226A00F48031914204D1616A00F40E
:100A80007010884201D00120EAE70020E8E700006A
:100A90000010024000004242800442421000002048
:100AA0000070004010B5401EB0F1807F01D30120DE
:100AB00010BD4FF0E02460610F21601700F006F9CF
:100AC0000020A06107202061002010BDFEE700216A
:100AD000012000F001B8000070B5234D04460A461D
:100AE0004FF480712846FFF7ECFC04F0010201216D
:100AF0002846FFF7E6FCC4F3400202212846FFF730
:100B0000E0FCC4F3800204212846FFF7DAFCC4F3BA
:100B1000C00208212846FFF7D4FCC4F300121021BC
:100B20002846FFF7CEFCC4F3401220212846FFF7E9
:100B3000C8FCC4F3801240212846FFF7C2FCE2093A
:100B400080212846FFF7BDFC012254022146284699
:100B5000FFF7B7FC0520FFF7BDFB21462846BDE89F
:100B600070400022FFF7ADBC0008014061B10128D0
:100B700011D0022812D003280AD0042811D1002154
:100B80005FF0D400FFF7A8BF012804D0022808D1E5
:100B90000021C020F6E700218020F3E70021942007
:100BA000F0E7704710B500213820FFF795FF0021CE
:100BB0000C20FFF791FF00210620FFF78DFF002199
:100BC0000120FFF789FF0021BDE810408020FFF7DA
:100BD00083BF70B50546002405E0285D0121FFF7BD
:100BE0007BFF641CE4B22846FFF7EEFAA042F4D87B
:100BF00070BD000070B586B00024194800940194BF
:100C000002940394816941F004018161816901F0DA
:100C100004010491816941F0080181618069114EEC
:100C200000F0080040F2FF350490002229463046CB
:100C3000FFF747FC01200095CDE901040220039055
:100C400069463046FFF758FB48F20700CDE900043B
:100C5000694605480294FFF74FFB06B070BD0000DF
:100C60000010024000080140000C0140FEE7FEE7D2
:100C700070477047FFF730BC10B590B02821684628
:100C8000FFF7C1FA14210AA8FFF7BDFA022000906D
:100C90000120049010200024059007946846FFF777
:100CA00071FD08B172B6FEE70F20CDE90A040C947D
:100CB0000D9400210AA80E94FFF798FC002801D09B
:100CC00072B6FEE710B010BD7047FEE70907090EC7
:100CD000002804DB00F1E02080F80014704700F0E9
:100CE0000F0000F1E02080F8141D704770B500F08F
:100CF00081F8044600210120FFF738FF601C4FF403
:100D0000FA754FF0000111D014A0FFF762FF3220F6
:100D1000FFF7E0FA00210220FFF728FF012C12D094
:100D2000022C4FF0000111D010A010E010A0FFF72E
:100D300050FF3220FFF7CEFA00210220FFF716FF06
:100D400000210EA003E0002110A000E010A0FFF79A
:100D500040FF2846BDE87040FFF7BCBA5061726B97
:100D600020617420536C6F74203A2000330000001F
:100D7000204E6F205061726B696E67002041766172
:100D8000696C61626C652121000000003100000087
:100D9000320000000549002003460968044A02E0C9
:100DA00042F82030401C8842FADB704700000020E7
:100DB00014000020FFF798FBFFF75EFFFFF71AFF14
:100DC000FFF7F0FEFFF7E6FF094D4FF4004440F255
:100DD000EE2621462846FFF76FFB012801D1FFF7D9
:100DE00085FF3046FFF776FAFFF771FEF1E7000066
:100DF000000C014010B500F015F80949074A002021
:100E00000968884206DA52F8203000F10100002B10
:100E1000F7D110BD4FF0FF3010BD000014000020CE
:100E2000000000202DE9F041104F01213846FFF766
:100E300043FB012500260E4C012810D0266002211C
:100E40003846FFF739FB01280BD06660042138468D
:100E5000FFF732FB012806D0A660BDE8F0812560CF
:100E6000EDE76560F2E7A560F7E70000000C0140E0
:100E70001400002000000000000000000102030434
:100E800006070809A40E0008000000201400000056
:100E900028010008B80E0008140000206C060000AD
:100EA00044010008030000000100000010000000E1
:080EB000000000000024F40022
:04000005080000ED02
:00000001FF
